:020000040800F2
:1000000000280020150B0008A9090008AF09000806
:10001000B5090008BB090008C1090008000000007C
:10002000000000000000000000000000C7090008F8
:10003000D309000800000000DF090008EB090008F0
:100040005D0B00085D0B00085D0B00085D0B0008F0
:100050005D0B00085D0B00085D0B0008F709000848
:100060005D0B00085D0B00085D0B00085D0B0008D0
:100070005D0B00085D0B00085D0B00085D0B0008C0
:100080005D0B00085D0B00085D0B00085D0B0008B0
:100090005D0B00085D0B00085D0B00085D0B0008A0
:1000A0005D0B00085D0B00085D0B00085D0B000890
:1000B000050A00085D0B0008000000005D0B000849
:1000C0005D0B000800000000000000005D0B000850
:1000D000000000005D0B00085D0B00080000000040
:1000E0005D0B00085D0B00085D0B000800000000C0
:1000F0000000000000000000000000000000000000
:0C01000000000000000000005FF808F1A3
:10010C0010B5054C237833B9044B13B10448AFF345
:10011C0000800123237010BD0C00002000000000A3
:10012C00E022000808B5034B1BB103490348AFF3A9
:10013C00008008BD0000000010000020E022000834
:10014C0080B500AF00F006FD00F06AF800F00CF985
:10015C0000F0BEF800F0A2F8244801F0FBFC00F01F
:10016C009FF932220021224800F06EFA642200210D
:10017C00204800F069FAC82200211F4800F064FAF8
:10018C004FF4C87200211D4800F05EFA4FF448721B
:10019C0000211B4800F058FA4FF4C862002119489E
:1001AC0000F052FA4FF4C8620021174800F04CFAE4
:1001BC004FF4C8620021154800F046FA4FF4C862AB
:1001CC000021134800F040FA4FF4C8620021114896
:1001DC0000F03AFA3C2200210F4800F035FA0F48A3
:1001EC0001F054F800F036FBF9E700BF40000020A6
:1001FC00250A0008390A00084D0A0008610A00089F
:10020C00750A0008890A00089D0A0008B50A00084A
:10021C00CD0A0008E50A0008FD0A00083400002099
:10022C0080B590B000AF07F11803282200211846C2
:10023C0002F048F83B1D00221A605A609A60DA609E
:10024C001A610A23BB610123BB621023FB620123E9
:10025C003B6300237B6307F11803184601F042F857
:10026C000346002B01D000F015F90F237B6000230F
:10027C00BB600023FB6000233B6100237B613B1DC3
:10028C000021184601F0AEFA0346002B01D000F015
:10029C0001F900BF4037BD4680BD000080B500AFFE
:1002AC00094B0A4A1A60084B03225A60064B40F667
:1002BC00FF729A60044800F0A7FF0346002B01D0A0
:1002CC0000F0E8F800BF80BD340000200030004092
:1002DC0080B586B000AF07F1080300221A605A609F
:1002EC009A60DA603B4600221A605A601D4B4FF050
:1002FC0080421A601B4B41F63F725A60194B002228
:10030C009A60184B0922DA60164B00221A61154BC1
:10031C0000229A61134801F0CDFB0346002B01D05B
:10032C0000F0B8F84FF48053BB6007F1080319468E
:10033C000C4801F063FD0346002B01D000F0AAF835
:10034C0000233B6000237B603B461946054801F0C7
:10035C002BFF0346002B01D000F09CF800BF183790
:10036C00BD4680BD4000002080B588B000AF07F1CD
:10037C00100300221A605A609A60DA60314B9B6954
:10038C00304A43F0200393612E4B9B6903F020030A
:10039C00FB60FB682B4B9B692A4A43F00403936177
:1003AC00284B9B6903F00403BB60BB68254B9B691E
:1003BC00244A43F008039361224B9B6903F0080322
:1003CC007B607B68002241F6FD711F4800F0C8FE7F
:1003DC000122FF211D4800F0C3FE41F6FD733B6175
:1003EC0001237B610023BB610223FB6107F1100336
:1003FC001946154800F03AFD02233B61144B7B6112
:10040C000023BB6107F1100319460F4800F02EFDC5
:10041C00FF233B6101237B610023BB610223FB6152
:10042C0007F110031946094800F020FD00220021B5
:10043C00072000F0E4FC072000F0FDFC00BF203793
:10044C00BD4680BD0010024000080140000C014078
:10045C000000111080B582B000AF786000F060F839
:10046C000A4B1B68642B07D10121094800F090FE50
:10047C00064B00221A6004E0044B1B680133034A4C
:10048C00136000BF0837BD4680BD00BF28000020A8
:10049C000008014080B400AF72B600BFFEE7000058
:1004AC0080B483B000AF0023FB7129E0FA791A49BC
:1004BC0013469B0013449B000B4400221A60FA79EC
:1004CC00154913469B0013449B000B440433002234
:1004DC001A60FA79104913469B0013449B000B4495
:1004EC00083300221A60FA790B4913469B00134417
:1004FC009B000B440C3300221A70FB790133FB7107
:10050C00FB79042BD2D9054B00221A7000BF0C3793
:10051C00BD4680BC704700BFA00000209C0000209E
:10052C00B0B500AF1F4B1B68002B38D01D4B5B6860
:10053C00002B2FD11B4B1B7B0133DAB2194B1A73D7
:10054C00184B9B68174A5360164B9B68002B26D0A0
:10055C00154A144B14461D460FCD0FC42B6823604F
:10056C00002000F023F8104B1B680F4A91680E4ACC
:10057C009268184600F068F8034619460A4B187B37
:10058C00084A0B469B000B449B0013440C33024659
:10059C001A7004E0034B5B68013B024A536000BFD6
:1005AC00B0BD00BFA000002088000020B0B485B012
:1005BC0000AF786021497A6813469B0013449B0076
:1005CC000B441B68002B05D07B68002B02DB7B687F
:1005DC00042B05DD1A4B02221A700023FB7301E079
:1005EC000123FB737B68BB7317E0BB7B5A1CB97B85
:1005FC0012480B469B000B449B0018440F491346B2
:10060C009B0013449B000B4404461D460FCD0FC4A6
:10061C002B682360BB7B0133BB730A4B1B78BA7B03
:10062C009A42E2D3074B1B78013BDAB2054B1A70A6
:10063C00FB7B18461437BD46B0BC7047A0000020A9
:10064C009C0000202C000020B0B487B000AFF860F4
:10065C00B9607A60574B1B78042B04D9564B0A228D
:10066C001A700A23A1E0534B1B780133DAB2514BB9
:10067C001A7000237B610EE050497A6913469B0087
:10068C0013449B000B4404331B68BA68D31ABB6039
:10069C007B6901337B6149497A6913469B0013449A
:1006AC009B000B441B68002B0ED07B69042B0BDCCE
:1006BC0042497A6913469B0013449B000B44043354
:1006CC001B68BA689A42D7D23D4A7B691360394B92
:1006DC001B78013B7A699A4239D0364B1B78023B26
:1006EC007B6117E07B695A1C344913469B00134409
:1006FC009B00C81831497A6913469B0013449B0030
:10070C000B4404461D460FCD0FC42B6823607B6938
:10071C00013B7B612A4B1B687A699A42E2DA284BCF
:10072C001B685A1C254913469B0013449B000B4421
:10073C0004331968224B1B685A1CBB68C91A1F4822
:10074C0013469B0013449B000344043319601C4B59
:10075C001A681A4913469B0013449B000B44FA6811
:10076C001A60174B1A68154913469B0013449B00DB
:10077C000B440433BA681A60114B1A680F491346BC
:10078C009B0013449B000B4408337A681A600C4B93
:10079C001A680A4913469B0013449B000B440C3304
:1007AC0000221A70064B1B68DBB218461C37BD467C
:1007BC00B0BC70472C0000209C000020A000002042
:1007CC003000002080B400AF184B1A78184B1B78FF
:1007DC009A4216D0154B1B78C3F1FF02154BDA6009
:1007EC00124B1A78124B1A70104B1B78002B04D03A
:1007FC00114B4EF660221A8014E00F4B00221A8027
:10080C0010E00D4B1B88002B0CD00B4B1B88013BB5
:10081C009AB2094B1A80084B1B88002B02D1034B50
:10082C0000221A7000BFBD4680BC70479C0000209F
:10083C0004010020000C01400601002080B500AF2F
:10084C0000F0EAF90121002000F030FD00F0F2F98F
:10085C0000BF80BD80B582B000AF0023FB713AE0D1
:10086C00FA79224913469B0013449B000B440C332A
:10087C001B78002B2CD0FA791C4913469B0013448F
:10088C009B000B441B689847FA79184913469B0048
:10089C0013449B000B440C331B78FA79013BD8B200
:1008AC00124913469B0013449B000B440C33024625
:1008BC001A70FA790D4913469B0013449B000B44A4
:1008CC0008331B68002B03D1FB791846FFF76EFE2B
:1008DC00FB790133FB71FB79042BC1D9FFF772FF54
:1008EC00FFF7ACFF00BF0837BD4680BDA00000205D
:1008FC0080B485B000AF154B9B69144A43F00103DB
:10090C009361124B9B6903F00103BB60BB680F4BF7
:10091C00DB690E4A43F08053D3610C4BDB6903F067
:10092C0080537B607B680A4B5B68FB60FB6823F041
:10093C00E063FB60FB6843F00073FB60044AFB68F8
:10094C00536000BF1437BD4680BC70470010024096
:10095C000000014080B584B000AF78607B681B68F4
:10096C00B3F1804F13D10C4BDB690B4A43F00103FD
:10097C00D361094BDB6903F00103FB60FB680022C8
:10098C0000211C2000F03BFA1C2000F054FA00BFA0
:10099C001037BD4680BD00BF0010024080B400AFD0
:1009AC00FEE780B400AFFEE780B400AFFEE780B492
:1009BC0000AFFEE780B400AFFEE780B400AF00BF2D
:1009CC00BD4680BC704780B400AF00BFBD4680BC44
:1009DC00704780B400AF00BFBD4680BC704780B587
:1009EC0000AF00F0FDF800BF80BD80B500AF022065
:1009FC0000F0E8FB00BF80BD80B500AF024801F0FD
:100A0C00F5F800BF80BD00BF4000002080B400AFEF
:100A1C0000BFBD4680BC704780B500AF04210248C2
:100A2C0000F0B6FB00BF80BD0008014080B500AFF0
:100A3C000821024800F0ACFB00BF80BD000801405B
:100A4C0080B500AF1021024800F0A2FB00BF80BDB2
:100A5C000008014080B500AF2021024800F098FB4F
:100A6C0000BF80BD0008014080B500AF40210248A6
:100A7C0000F08EFB00BF80BD0008014080B500AFC8
:100A8C008021024800F084FB00BF80BD00080140BB
:100A9C0080B500AF4FF48071024800F079FB00BFC5
:100AAC0080BD00BF0008014080B500AF4FF400715D
:100ABC00024800F06DFB00BF80BD00BF0008014084
:100ACC0080B500AF4FF48061024800F061FB00BFBD
:100ADC0080BD00BF0008014080B500AF4FF400613D
:100AEC00024800F055FB00BF80BD00BF000801406C
:100AFC0080B500AF4FF48051024800F049FB00BFB5
:100B0C0080BD00BF000801400C480D490D4A002370
:100B1C0002E0D458C4500433C4188C42F9D30A4AA6
:100B2C000A4C002301E013600432A242FBD3FFF70E
:100B3C006DFF01F0A3FBFFF703FB704700000020E3
:100B4C000C000020202300080C0000200C010020C9
:100B5C00FEE7000080B500AF084B1B68074A43F066
:100B6C0010031360032000F03FF90F2000F008F889
:100B7C00FFF7BEFE0023184680BD00BF00200240D8
:100B8C0080B582B000AF7860124B1A68124B1B789C
:100B9C0019464FF47A73B3FBF1F3B2FBF3F3184637
:100BAC0000F057F90346002B01D001230EE07B68BF
:100BBC000F2B0AD8002279684FF0FF3000F01FF994
:100BCC00064A7B681360002300E0012318460837AF
:100BDC00BD4680BD0000002008000020040000205D
:100BEC0080B400AF054B1B781A46054B1B681344A9
:100BFC00034A136000BFBD4680BC7047080000204C
:100C0C000801002080B400AF024B1B681846BD469B
:100C1C0080BC70470801002080B400AF044B1B68F7
:100C2C00034A23F00203136000BFBD4680BC70472B
:100C3C0010E000E080B400AF044B1B68034A43F0A3
:100C4C000203136000BFBD4680BC704710E000E09B
:100C5C0080B485B000AF78607B6803F00703FB605D
:100C6C000C4BDB68BB60BA684FF6FF031340BB60EC
:100C7C00FB681A02BB68134343F0BF6343F40033B1
:100C8C00BB60044ABB68D36000BF1437BD4680BC50
:100C9C00704700BF00ED00E080B400AF044BDB6890
:100CAC001B0A03F007031846BD4680BC704700BF03
:100CBC0000ED00E080B483B000AF0346FB7197F900
:100CCC000730002B0BDBFB7903F01F02064997F969
:100CDC0007305B09012000FA02F241F8232000BF23
:100CEC000C37BD4680BC704700E100E080B483B097
:100CFC0000AF03463960FB7197F90730002B0ADB14
:100D0C003B68DAB20C4997F907301201D2B20B44A6
:100D1C0083F800230AE03B68DAB20849FB7903F058
:100D2C000F03043B1201D2B20B441A7600BF0C37EE
:100D3C00BD4680BC704700BF00E100E000ED00E064
:100D4C0080B489B000AFF860B9607A60FB6803F0DA
:100D5C000703FB61FB69C3F10703042B28BF0423C2
:100D6C00BB61FB690433062B02D9FB69033B00E032
:100D7C0000237B614FF0FF32BB6902FA03F3DA43C5
:100D8C00BB681A407B699A404FF0FF317B6901FACE
:100D9C0003F3D9437B680B40134318462437BD46F5
:100DAC0080BC704780B582B000AF78607B68013B37
:100DBC00B3F1807F01D301230FE00A4A7B68013B2A
:100DCC0053600F214FF0FF30FFF790FF054B0022CF
:100DDC009A60044B07221A60002318460837BD4658
:100DEC0080BD00BF10E000E080B582B000AF78603D
:100DFC007868FFF72DFF00BF0837BD4680BD80B572
:100E0C0086B000AF0346B9607A60FB7300237B6148
:100E1C00FFF742FF78617A68B9687869FFF790FF4D
:100E2C00024697F90F3011461846FFF75FFF00BFD7
:100E3C001837BD4680BD80B582B000AF0346FB714C
:100E4C0097F907301846FFF735FF00BF0837BD4646
:100E5C0080BD80B582B000AF78607868FFF7A2FFE4
:100E6C00034618460837BD4680BD000080B48BB0E1
:100E7C0000AF7860396000237B6200233B6248E15D
:100E8C0001227B6A02FA03F3FB613B681B68FA6977
:100E9C001340BB61BA69FB699A4240F037813B68E9
:100EAC005B68A34A93425ED0A14A934275D8A14A8B
:100EBC00934258D09F4A93426FD89F4A934252D044
:100ECC009D4A934269D89D4A93424CD09B4A934287
:100EDC0063D89B4A934246D0994A93425DD8122BD1
:100EEC002AD8122B59D801A252F823F0730F0008FC
:100EFC004D0F00085F0F0008A10F0008A70F000896
:100F0C00A70F0008A70F0008A70F0008A70F0008DD
:100F1C00A70F0008A70F0008A70F0008A70F0008CD
:100F2C00A70F0008A70F0008A70F0008A70F0008BD
:100F3C00550F0008690F0008824A934213D02CE029
:100F4C003B68DB683B6229E03B68DB6804333B624F
:100F5C0024E03B68DB6808333B621FE03B68DB68DE
:100F6C000C333B621AE03B689B68002B02D10423D4
:100F7C003B6213E03B689B68012B05D108233B6265
:100F8C007B68FA691A6109E008233B627B68FA699D
:100F9C005A6103E000233B6200E000BFBB69FF2BFA
:100FAC0001D87B6801E07B6804337B61BB69FF2B54
:100FBC0002D87B6A9B0002E07B6A083B9B003B618A
:100FCC007B691A680F213B6901FA03F3DB431A4072
:100FDC00396A3B6901FA03F31A437B691A603B686F
:100FEC005B6803F08053002B00F09080564B9B699C
:100FFC00554A43F001039361534B9B6903F0010382
:10100C00BB60BB68514A7B6A9B08023352F82330A1
:10101C00FB607B6A03F003039B000F2202FA03F3CD
:10102C00DB43FA681340FB607B68494A93420DD05E
:10103C007B68484A934207D07B68474A934201D168
:10104C00022304E0032302E0012300E000237A6A78
:10105C0002F0030292009340FA681343FB603B4991
:10106C007B6A9B080233FA6841F823203B685B6873
:10107C0003F48033002B06D0384B1A683749BB6910
:10108C0013430B6006E0354B1A68BB69DB433349ED
:10109C0013400B603B685B6803F40033002B06D0F5
:1010AC002E4B5A682D49BB6913434B6006E02B4B02
:1010BC005A68BB69DB43294913404B603B685B684A
:1010CC0003F48013002B06D0244B9A682349BB6988
:1010DC0013438B6006E0214B9A68BB69DB431F49C5
:1010EC0013408B603B685B6803F40013002B06D045
:1010FC001A4BDA681949BB691343CB6006E0174BEE
:10110C00DA68BB69DB4315491340CB607B6A01335A
:10111C007B623B681A687B6A22FA03F3002B7FF42C
:10112C00AFAE00BF00BF2C37BD4680BC704700BFC0
:10113C0000003210000031100000221000002110BD
:10114C0000001210000011100010024000000140BD
:10115C0000080140000C0140001001400004014057
:10116C0080B483B000AF78600B467B8013467B70F5
:10117C007B78002B03D07A887B681A6103E07B882C
:10118C001A047B681A6100BF0C37BD4680BC7047DF
:10119C0080B485B000AF78600B467B807B68DB68E1
:1011AC00FB607A88FB6813401A04FB68D9437B8880
:1011BC000B401A437B681A6100BF1437BD4680BCD4
:1011CC007047000080B582B000AF0346FB80084B2F
:1011DC005A69FB881340002B06D0054AFB885361E3
:1011EC00FB88184600F006F800BF0837BD4680BDE6
:1011FC000004014080B483B000AF0346FB8000BF05
:10120C000C37BD4680BC704780B584B000AF7860A9
:10121C007B68002B01D1012334E07B681B684CF602
:10122C00CC421A607B681B6845F255521A607B6889
:10123C001B687A6852685A607B681B687A68926887
:10124C009A60FFF7DFFCF8600FE0FFF7DBFC02466B
:10125C00FB68D31A272B08D97B681B68DB6803F063
:10126C000303002B01D003230CE07B681B68DB68B5
:10127C0003F00303002BE8D17B681B684AF6AA2213
:10128C001A60002318461037BD4680BD80B483B069
:10129C0000AF78607B681B684AF6AA221A600023AC
:1012AC0018460C37BD4680BC7047000080B483B034
:1012BC0000AF78600B46FB70094B1B69084A23F0A2
:1012CC0004031361FB78012B01D130BF02E040BF56
:1012DC0020BF20BF00BF0C37BD4680BC704700BF8D
:1012EC0000ED00E080B586B000AF78607B68002B25
:1012FC0001D101236CE27B681B6803F00103002B16
:10130C0000F08780924B5B6803F00C03042B0CD02D
:10131C008F4B5B6803F00C03082B12D18C4B5B6872
:10132C0003F48033B3F5803F0BD1894B1B6803F476
:10133C000033002B6CD07B685B68002B68D10123D9
:10134C0046E27B685B68B3F5803F06D1804B1B6837
:10135C007F4A43F4803313602EE07B685B68002B7C
:10136C000CD17B4B1B687A4A23F480331360784B87
:10137C001B68774A23F4802313601DE07B685B684D
:10138C00B3F5A02F0CD1724B1B68714A43F4802328
:10139C0013606F4B1B686E4A43F4803313600BE091
:1013AC006B4B1B686A4A23F480331360684B1B68D1
:1013BC00674A23F4802313607B685B68002B13D08F
:1013CC00FFF720FC386108E0FFF71CFC02463B6984
:1013DC00D31A642B01D90323FAE15D4B1B6803F488
:1013EC000033002BF0D014E0FFF70CFC386108E060
:1013FC00FFF708FC02463B69D31A642B01D903237F
:10140C00E6E1534B1B6803F40033002BF0D100E0F2
:10141C0000BF7B681B6803F00203002B63D04C4BAE
:10142C005B6803F00C03002B0BD0494B5B6803F09B
:10143C000C03082B1CD1464B5B6803F48033002B48
:10144C0016D1434B1B6803F00203002B05D07B68BD
:10145C001B69012B01D00123BAE13D4B1B6823F022
:10146C00F8027B685B69DB00394913430B603AE097
:10147C007B681B69002B20D0364B01221A60FFF7CA
:10148C00C1FB386108E0FFF7BDFB02463B69D31A8C
:10149C00022B01D903239BE12D4B1B6803F00203A4
:1014AC00002BF0D02A4B1B6823F0F8027B685B6999
:1014BC00DB00274913430B6015E0264B00221A6012
:1014CC00FFF7A0FB386108E0FFF79CFB02463B6985
:1014DC00D31A022B01D903237AE11D4B1B6803F0AD
:1014EC000203002BF0D17B681B6803F00803002B70
:1014FC003AD07B689B69002B19D0174B01221A60DC
:10150C00FFF780FB386108E0FFF77CFB02463B6984
:10151C00D31A022B01D903235AE10D4B5B6A03F05A
:10152C000203002BF0D0012000F0A6FA1CE00A4BBD
:10153C0000221A60FFF766FB38610FE0FFF762FBD1
:10154C0002463B69D31A022B08D9032340E100BFA2
:10155C000010024000004242800442429E4B5B6AF3
:10156C0003F00203002BE9D17B681B6803F0040332
:10157C00002B00F0A6800023FB75974BDB6903F072
:10158C008053002B0DD1944BDB69934A43F080536D
:10159C00D361914BDB6903F08053BB60BB680123C3
:1015AC00FB758E4B1B6803F48073002B18D18B4B8F
:1015BC001B688A4A43F480731360FFF723FB38617E
:1015CC0008E0FFF71FFB02463B69D31A642B01D9D5
:1015DC000323FDE0814B1B6803F48073002BF0D0D8
:1015EC007B68DB68012B06D17B4B1B6A7A4A43F084
:1015FC00010313622DE07B68DB68002B0CD1764B6A
:10160C001B6A754A23F001031362734B1B6A724AFF
:10161C0023F0040313621CE07B68DB68052B0CD100
:10162C006D4B1B6A6C4A43F0040313626A4B1B6AD2
:10163C00694A43F0010313620BE0674B1B6A664A6D
:10164C0023F001031362644B1B6A634A23F0040307
:10165C0013627B68DB68002B15D0FFF7D3FA386177
:10166C000AE0FFF7CFFA02463B69D31A41F28832FF
:10167C00934201D90323ABE0574B1B6A03F00203DF
:10168C00002BEED014E0FFF7BDFA38610AE0FFF74B
:10169C00B9FA02463B69D31A41F28832934201D916
:1016AC00032395E04C4B1B6A03F00203002BEED195
:1016BC00FB7D012B05D1484BDB69474A23F0805356
:1016CC00D3617B68DB69002B00F08180424B5B6847
:1016DC0003F00C03082B61D07B68DB69022B46D12D
:1016EC003F4B00221A60FFF78DFA386108E0FFF7D4
:1016FC0089FA02463B69D31A022B01D9032367E00E
:10170C00354B1B6803F00073002BF0D17B681B6A10
:10171C00B3F5803F08D1304B5B6823F400327B6813
:10172C009B682D4913434B602B4B5B6823F474125D
:10173C007B68196A7B685B6A0B43274913434B60D0
:10174C00274B01221A60FFF75DFA386108E0FFF7BA
:10175C0059FA02463B69D31A022B01D9032337E00D
:10176C001D4B1B6803F00073002BF0D02FE01C4BBB
:10177C0000221A60FFF746FA386108E0FFF742FAD8
:10178C0002463B69D31A022B01D9032320E0124BEA
:10179C001B6803F00073002BF0D118E07B68DB6949
:1017AC00012B01D1012313E00B4B5B68FB60FB6841
:1017BC0003F480327B681B6A9A4206D1FB6803F4FF
:1017CC0070127B685B6A9A4201D0012300E000230F
:1017DC0018461837BD4680BD00100240007000400E
:1017EC006000424280B584B000AF786039607B689D
:1017FC00002B01D10123D0E06A4B1B6803F00703D7
:10180C003A689A4210D9674B1B6823F00702654966
:10181C003B6813430B60634B1B6803F007033A6888
:10182C009A4201D00123B8E07B681B6803F00203E5
:10183C00002B20D07B681B6803F00403002B05D021
:10184C00594B5B68584A43F4E06353607B681B68F0
:10185C0003F00803002B05D0534B5B68524A43F44A
:10186C0060535360504B5B6823F0F0027B689B68BD
:10187C004D4913434B607B681B6803F00103002B3D
:10188C0040D07B685B68012B07D1474B1B6803F486
:10189C000033002B15D101237FE07B685B68022BA2
:1018AC0007D1414B1B6803F00073002B09D10123B6
:1018BC0073E03D4B1B6803F00203002B01D10123A5
:1018CC006BE0394B5B6823F003027B685B6836493D
:1018DC0013434B60FFF796F9F8600AE0FFF792F9B3
:1018EC000246FB68D31A41F28832934201D9032392
:1018FC0053E02D4B5B6803F00C027B685B689B002C
:10190C009A42EBD1274B1B6803F007033A689A42C3
:10191C0010D2244B1B6823F0070222493B68134367
:10192C000B60204B1B6803F007033A689A4201D006
:10193C00012332E07B681B6803F00403002B08D002
:10194C00194B5B6823F4E0627B68DB681649134330
:10195C004B607B681B6803F00803002B09D0124B0B
:10196C005B6823F460527B681B69DB000E491343F0
:10197C004B6000F021F802460B4B5B681B0903F02F
:10198C000F030A49CB5C22FA03F3094A1360094B93
:10199C001B681846FFF7F4F8002318461037BD46AD
:1019AC0080BD00BF00200240001002400823000848
:1019BC00000000200400002090B48AB000AF2A4B35
:1019CC003C1D0FCB84E80F0040F201233B80002329
:1019DC00FB610023BB6100237B6200237B6100233E
:1019EC003B62224B5B68FB61FB6903F00C03042B2D
:1019FC0002D0082B03D02DE01D4B3B622DE0FB6980
:101A0C009B0C03F00F0307F12802134413F8243C3A
:101A1C007B61FB6903F48033002B13D0134B5B68A1
:101A2C005B0C03F0010307F12802134413F8283C64
:101A3C00BB617B690E4A02FB03F2BB69B2FBF3F399
:101A4C007B6204E07B690B4A02FB03F37B627B6ADB
:101A5C003B6202E0064B3B6200BF3B6A18462837EC
:101A6C00BD4690BC704700BFF82200080010024031
:101A7C0000127A0000093D0080B485B000AF786098
:101A8C000A4B1B680A4AA2FB03235B0A7A6802FB17
:101A9C0003F3FB6000BFFB685A1EFA60002BF9D100
:101AAC0000BF00BF1437BD4680BC7047000000204B
:101ABC00D34D621080B582B000AF78607B68002B8C
:101ACC0001D1012341E07B6893F83D30DBB2002B60
:101ADC0006D17B68002283F83C207868FEF73AFF39
:101AEC007B68022283F83D207B681A687B6804338C
:101AFC001946104600F06AFA7B68012283F84620EA
:101B0C007B68012283F83E207B68012283F83F200A
:101B1C007B68012283F840207B68012283F84120F6
:101B2C007B68012283F842207B68012283F84320E2
:101B3C007B68012283F844207B68012283F84520CE
:101B4C007B68012283F83D20002318460837BD46E8
:101B5C0080BD000080B485B000AF78607B6893F8DE
:101B6C003D30DBB2012B01D0012335E07B68022232
:101B7C0083F83D207B681B68DA687B681B6842F041
:101B8C000102DA607B681B68164A934209D07B68B5
:101B9C001B68B3F1804F04D07B681B68124A9342D8
:101BAC0011D17B681B689B6803F00703FB60FB6823
:101BBC00062B10D07B681B681A687B681B6842F088
:101BCC0001021A6007E07B681B681A687B681B6857
:101BDC0042F001021A60002318461437BD4680BC3F
:101BEC00704700BF002C01400004004080B582B05B
:101BFC0000AF78607B681B681B6903F00203022B43
:101C0C0022D17B681B68DB6803F00203022B1BD11B
:101C1C007B681B686FF002021A617B6801221A77DD
:101C2C007B681B689B6903F00303002B03D0786867
:101C3C0000F0B1F905E0786800F0A4F9786800F0DC
:101C4C00B3F97B6800221A777B681B681B6903F069
:101C5C000403042B22D17B681B68DB6803F00403AC
:101C6C00042B1BD17B681B686FF004021A617B6824
:101C7C0002221A777B681B689B6903F44073002B64
:101C8C0003D0786800F087F905E0786800F07AF9FD
:101C9C00786800F089F97B6800221A777B681B68EA
:101CAC001B6903F00803082B22D17B681B68DB68D7
:101CBC0003F00803082B1BD17B681B686FF008022C
:101CCC001A617B6804221A777B681B68DB6903F056
:101CDC000303002B03D0786800F05DF905E0786809
:101CEC0000F050F9786800F05FF97B6800221A77F1
:101CFC007B681B681B6903F01003102B22D17B68D7
:101D0C001B68DB6803F01003102B1BD17B681B686E
:101D1C006FF010021A617B6808221A777B681B68C7
:101D2C00DB6903F44073002B03D0786800F033F9BF
:101D3C0005E0786800F026F9786800F035F97B68E2
:101D4C0000221A777B681B681B6903F00103012BC7
:101D5C000ED17B681B68DB6803F00103012B07D1F4
:101D6C007B681B686FF001021A617868FEF772FBE2
:101D7C007B681B681B6903F08003802B0ED17B688A
:101D8C001B68DB6803F08003802B07D17B681B6822
:101D9C006FF080021A61786800F067FA7B681B6844
:101DAC001B6903F04003402B0ED17B681B68DB687A
:101DBC0003F04003402B07D17B681B686FF0400297
:101DCC001A61786800F0F9F87B681B681B6903F0EE
:101DDC002003202B0ED17B681B68DB6803F02003EB
:101DEC00202B07D17B681B686FF020021A61786882
:101DFC0000F032FA00BF0837BD4680BD80B584B014
:101E0C0000AF786039607B6893F83C30012B01D1CE
:101E1C000223B3E07B68012283F83C207B6802221A
:101E2C0083F83D207B681B689B68FB60FB6823F094
:101E3C007703FB60FB6823F47F43FB607B681B68C4
:101E4C00FA689A603B681B68B3F5005F3ED0B3F547
:101E5C00005F00F28780B3F5805F00F08580B3F5FA
:101E6C00805F7FD8702B1AD0702B7BD8602B50D012
:101E7C00602B77D8502B3CD0502B73D8402B58D09C
:101E8C00402B6FD8302B64D0302B6BD8202B60D0EC
:101E9C00202B67D8002B5CD0102B5AD062E07B68CB
:101EAC0018683B6899683B685A683B68DB6800F0C7
:101EBC005CF97B681B689B68FB60FB6843F07703ED
:101ECC00FB607B681B68FA689A604EE07B68186858
:101EDC003B6899683B685A683B68DB6800F045F9D9
:101EEC007B681B689A687B681B6842F480429A6026
:101EFC003BE07B6818683B6859683B68DB681A46AE
:101F0C0000F0BCF87B681B685021184600F013F9F0
:101F1C002BE07B6818683B6859683B68DB681A469D
:101F2C0000F0DAF87B681B686021184600F003F9B2
:101F3C001BE07B6818683B6859683B68DB681A468D
:101F4C0000F09CF87B681B684021184600F0F3F801
:101F5C000BE07B681A683B681B681946104600F05A
:101F6C00EAF802E000BF00E000BF7B68012283F8C2
:101F7C003D207B68002283F83C2000231846103754
:101F8C00BD4680BD80B483B000AF786000BF0C3715
:101F9C00BD4680BC704780B483B000AF786000BF92
:101FAC000C37BD4680BC704780B483B000AF7860FE
:101FBC0000BF0C37BD4680BC704780B483B000AF07
:101FCC00786000BF0C37BD4680BC704780B485B0CC
:101FDC0000AF786039607B681B68FB607B68254AC2
:101FEC00934207D07B68B3F1804F03D07B68224AC1
:101FFC00934208D1FB6823F07003FB603B685B687D
:10200C00FA681343FB607B681A4A934207D07B68DB
:10201C00B3F1804F03D07B68174A934208D1FB6819
:10202C0023F44073FB603B68DB68FA681343FB6086
:10203C00FB6823F080023B685B691343FB607B68A1
:10204C00FA681A603B689A687B68DA623B681A68BF
:10205C007B689A627B68074A934203D13B681A6992
:10206C007B681A637B6801225A6100BF1437BD4636
:10207C0080BC7047002C01400004004080B487B045
:10208C0000AFF860B9607A60FB681B6A7B61FB6823
:10209C001B6A23F00102FB681A62FB689B693B61B7
:1020AC003B6923F0F0033B617B681B013A691343E6
:1020BC003B617B6923F00A037B617A69BB6813433C
:1020CC007B61FB683A699A61FB687A691A6200BFA6
:1020DC001C37BD4680BC704780B487B000AFF86039
:1020EC00B9607A60FB681B6A23F01002FB681A6205
:1020FC00FB689B697B61FB681B6A3B617B6923F412
:10210C0070437B617B681B037A6913437B613B697A
:10211C0023F0A0033B61BB681B013A6913433B618D
:10212C00FB687A699A61FB683A691A6200BF1C37CE
:10213C00BD4680BC704780B485B000AF7860396014
:10214C007B689B68FB60FB6823F07003FB603A685C
:10215C00FB68134343F00703FB607B68FA689A60E3
:10216C0000BF1437BD4680BC704780B487B000AF49
:10217C00F860B9607A603B60FB689B687B617B6947
:10218C0023F47F437B613B681A027B681A43BB686C
:10219C0013437A6913437B61FB687A699A6000BFC9
:1021AC001C37BD4680BC704780B485B000AF7860EA
:1021BC0039607B6893F83C30012B01D1022341E05C
:1021CC007B68012283F83C207B68022283F83D2047
:1021DC007B681B685B68FB607B681B689B68BB60EB
:1021EC00FB6823F07003FB603B681B68FA681343C1
:1021FC00FB607B681B68FA685A607B681B68144A32
:10220C00934209D07B681B68B3F1804F04D07B6884
:10221C001B68104A93420CD1BB6823F08003BB604F
:10222C003B685B68BA681343BB607B681B68BA6821
:10223C009A607B68012283F83D207B68002283F83A
:10224C003C20002318461437BD4680BC704700BFA5
:10225C00002C01400004004080B483B000AF7860D3
:10226C0000BF0C37BD4680BC704780B483B000AF54
:10227C00786000BF0C37BD4680BC704770B5002637
:10228C000C4D0D4C641BA410A64209D100F022F891
:10229C0000260A4D0A4C641BA410A64205D170BD41
:1022AC0055F8043B98470136EEE755F8043B984740
:1022BC000136F2E718230008182300081823000839
:1022CC001C23000803460244934200D1704703F8D4
:1022DC00011BF9E7F8B500BFF8BC08BC9E46704777
:0C22EC00F8B500BFF8BC08BC9E46704767
:1022F80002030405060708090A0B0C0D0E0F10103F
:10230800000000000000000001020304060708099D
:042318003101000887
:04231C000D010008A7
:0C2320000024F400100000000100000088
:0400000508000B15CF
:00000001FF
